:100000000C9462000C948A000C948A000C948A0070
:100010000C948A000C948A000C948A000C948A0038
:100020000C948A000C948A000C948A000C948A0028
:100030000C948A000C948A000C948A000C948A0018
:100040000C94B4020C948A000C948A000C948A00DC
:100050000C948A000C948A000C948A000C948A00F8
:100060000C948A000C948A000000000024002700F1
:100070002A0000000000250028002B0000000008D6
:10008000000201000003040700000000000000005F
:1000900000000000230026002900040404040404D6
:1000A0000404020202020202030303030303010227
:1000B00004081020408001020408102001020408F6
:1000C00010208D0411241FBECFEFD8E0DEBFCDBFBE
:1000D00011E0A0E0B1E0E6E1FCE002C005900D9285
:1000E000AE31B107D9F721E0AEE1B1E001C01D9218
:1000F000A334B207E1F710E0C2E6D0E004C02197D4
:10010000FE010E940306C136D107C9F70E944303CE
:100110000C9409060C940000AF92BF92CF92DF922C
:10012000EF92FF920F931F93CF93DF936C017B01AC
:100130008B01040F151FEB015E01AE18BF08C0173D
:10014000D10759F06991D601ED91FC910190F081B0
:10015000E02DC6010995892B79F7C501DF91CF9173
:100160001F910F91FF90EF90DF90CF90BF90AF90D5
:10017000089590E0FC01E458FF4F2491FC01E25502
:10018000FF4F3491FC01E656FF4FE491EE23C9F096
:10019000222339F0233001F1A8F4213019F1223063
:1001A00029F1F0E0EE0FFF1FEE58FF4FA591B4913B
:1001B0008FB7F894EC91611126C030953E233C93A3
:1001C0008FBF08952730A9F02830C9F0243049F7AF
:1001D000809180008F7D03C0809180008F77809315
:1001E0008000DFCF84B58F7784BDDBCF84B58F7D72
:1001F000FBCF8091B0008F778093B000D2CF8091F9
:10020000B0008F7DF9CF3E2BDACFCF93DF9390E014
:10021000FC01E255FF4F249186569F4FFC018491CB
:100220008823D1F090E0880F991FFC01E859FF4F17
:10023000A591B491FC01EE58FF4FC591D491611185
:100240000EC09FB7F8948C91E22FE0958E238C938B
:100250002881E223E8839FBFDF91CF9108958FB774
:10026000F894EC91E22BEC938FBFF6CF3FB7F89464
:100270008091230190912401A0912501B091260144
:1002800026B5A89B05C02F3F19F00196A11DB11DF1
:100290003FBFBA2FA92F982F8827BC01CD01620F2D
:1002A000711D811D911D42E0660F771F881F991FE8
:1002B0004A95D1F70895089590E080E00895FC01F3
:1002C00001900020E9F73197AF01481B590BBC01A1
:1002D0008BE291E00C948C00CF93DF93EC0160E013
:1002E0008E810E94B90061E08E810E94B90060E0B9
:1002F0008E810E94B9008BE891E00197F1F7DF91C0
:10030000CF910895CF92DF92EF92FF920F931F93B8
:10031000CF93DF936C017C0187E0E80EF11CD0E005
:10032000C0E0062F10E0B8010C2E02C0759567954D
:100330000A94E2F76170F70181917F010E94B90090
:100340002196C430D10579F7C601DF91CF911F9175
:100350000F91FF90EF90DF90CF900C946C01CF92B3
:10036000DF92EF92FF920F931F93CF93DF93EC01F5
:10037000F62E642F8C810E94B9008D818F3F19F079
:1003800060E00E94B9000F2D10E08F8584FF25C02A
:100390006E0187E0C80ED11CF12CE12CB8010E2CA7
:1003A00002C0759567950A94E2F76170F601819134
:1003B0006F010E94B900FFEFEF1AFF0A88E0E8160C
:1003C000F10461F7CE01DF91CF911F910F91FF9062
:1003D000EF90DF90CF900C946C01B80184E075959C
:1003E00067958A95E1F7CE010E9482016F2DCE01BB
:1003F000DF91CF911F910F91FF90EF90DF90CF9001
:100400000C94820140E0682F8BE291E00C94AF01E4
:10041000CF93DF93823029F490913A0198609093C2
:100420003A0180933E0110923F0180E480934001A5
:1004300080E18093410180E58093420161E08091F9
:100440002F010E940501809130018F3F19F061E07A
:100450000E94050161E0809131010E940501CBE21B
:10046000D1E09E012B52314080913A0184FD0BC0B6
:1004700084E090E021962817390744F461E08E81EA
:100480000E940501EECF88E090E0F4CF8BE39DE081
:100490000197F1F760E080912F010E94B90060E0C0
:1004A000809131010E94B900809130018F3F19F095
:1004B00060E00E94B90080913A0184FD39C063E098
:1004C0008BE291E00E948201CBE4D6E4CE01019759
:1004D000F1F763E08BE291E00E9482012197F1F74E
:1004E00063E08BE291E00E94820183E592E0019754
:1004F000F1F762E08BE291E00E94820180913A0183
:1005000080620E94020284E080933B018CE00E94A2
:10051000020281E00E9402028BE39FE10197F1F762
:1005200082E080933C0186E0DF91CF910C9402023F
:1005300080620E9402028BE496E40197F1F78091B9
:100540003A0180620E94020283E592E00197F1F78E
:1005500080913A0180620E940202D0CF41E00E9465
:10056000AF0181E090E008951F920F920FB60F92B5
:1005700011242F933F938F939F93AF93BF938091B9
:100580001F0190912001A0912101B0912201309191
:100590001E0123E0230F2D3758F50196A11DB11D33
:1005A00020931E0180931F0190932001A0932101AD
:1005B000B09322018091230190912401A091250103
:1005C000B09126010196A11DB11D80932301909346
:1005D0002401A0932501B0932601BF91AF919F9173
:1005E0008F913F912F910F900FBE0F901F901895F4
:1005F00026E8230F0296A11DB11DD2CFCF92DF9224
:10060000EF92FF920F931F93E82FF92F05C001502F
:1006100011092109310961F1908196239417B9F3E9
:1006200005C0015011092109310911F1908196236A
:100630009413F7CFC12CD12CE12CF12C0AC08FEFF1
:10064000C81AD80AE80AF80A0C151D052E053F0538
:1006500079F080818623841791F36C2D7D2D8E2D6A
:100660009F2D1F910F91FF90EF90DF90CF900895F5
:1006700060E070E080E090E01F910F91FF90EF90BC
:10068000DF90CF900895CF93DF93CDB7DEB7A197DA
:100690000FB6F894DEBF0FBECDBF789484B58260EC
:1006A00084BD84B5816084BD85B5826085BD85B516
:1006B000816085BD80916E00816080936E00109294
:1006C000810080918100826080938100809181000F
:1006D00081608093810080918000816080938000A0
:1006E0008091B10084608093B1008091B0008160FE
:1006F0008093B00080917A00846080937A0080912A
:100700007A00826080937A0080917A008160809381
:100710007A0080917A00806880937A001092C100FC
:1007200082E00E94080261E083E00E94050160E02F
:1007300082E00E94050161E08CE00E9405015AE020
:10074000852E912CA12CB12C63E0262E312C81E03A
:100750000E9402028BE39FE10197F1F7E1E08091B3
:100760003E018111E0E0E195F0E0E55DFE4F848916
:1007700080680E9402028CE091E00E945F01C090BC
:100780002701D0902801E0902901F0902A01F7FE7E
:10079000ACC041E06DE28BE291E00E94AF01222704
:1007A0003327A9012C193D094E095F0919A2CE0171
:1007B00081967C01CA01B901A50194010E94E1055D
:1007C000605DF70162937F012115310541055105F7
:1007D00089F7E114F10419F0C7010E945F0187E174
:1007E00091E00E945F018AE191E00E945F010E9416
:1007F00036012B013C0148EEC42E43E0D42EE12CFF
:10080000F12C0E9436016419750986099709683E22
:10081000734081059105A8F3F1E0CF1AD108E108F2
:10082000F10828EE420E23E0521E611C711CC11417
:10083000D104E104F10429F760E083E00E94B900EB
:10084000C1010197F1F761E083E00E94B90083E202
:1008500090E00197F1F760E083E00E94B900E0EBDF
:10086000F0E06491ECE9F0E08491E82FF0E0EE0F25
:10087000FF1FE057FF4F8591949100E412E42FE0B1
:1008800030E0462F0E94FE02611571058105910539
:1008900029F06F5F7F4F8F4F9F4F9F709595879582
:1008A000779567950E9455052DEC3CEC48EE51E498
:1008B0000E94AB040E941D056093270170932801DC
:1008C0008093290190932A01623371058105910576
:1008D00014F561E08CE00E94B90080E090E0892B83
:1008E00009F435CF0E94000032CFA701960119A26A
:1008F000CE0181967C01CA01B901A50194010E9433
:10090000E105605DF70162937F0121153105410525
:10091000510589F75ECF60E0DDCFEBE2F1E01382B5
:10092000128284E091E09183808389E084838FEF59
:10093000858388E0868384E0878385E0808786E0FE
:10094000818787E082871386148615861686178628
:1009500081E00C9408020E94BF040C94A7050E9439
:10096000A00558F00E94990540F029F45F3F29F056
:100970000C94900551110C94DB050C9496050E9483
:10098000B80568F39923B1F3552391F3951B550BE3
:10099000BB27AA2762177307840738F09F5F5F4F52
:1009A000220F331F441FAA1FA9F335D00E2E3AF091
:1009B000E0E832D091505040E695001CCAF72BD0A9
:1009C000FE2F29D0660F771F881FBB1F26173707FA
:1009D0004807AB07B0E809F0BB0B802DBF01FF272C
:1009E00093585F4F3AF09E3F510578F00C94900574
:1009F0000C94DB055F3FE4F3983ED4F3869577953E
:100A00006795B795F7959F5FC9F7880F911D9695E4
:100A1000879597F90895E1E0660F771F881FBB1F40
:100A2000621773078407BA0720F0621B730B840BED
:100A3000BA0BEE1F88F7E09508950E94240568948C
:100A4000B1110C94DB0508950E94C00588F09F57F2
:100A500098F0B92F9927B751B0F0E1F0660F771FE2
:100A6000881F991F1AF0BA95C9F714C0B13091F0D8
:100A70000E94DA05B1E008950C94DA05672F782F0B
:100A80008827B85F39F0B93FCCF38695779567959D
:100A9000B395D9F73EF490958095709561957F4F09
:100AA0008F4F9F4F0895E89409C097FB3EF49095AF
:100AB0008095709561957F4F8F4F9F4F9923A9F037
:100AC000F92F96E9BB279395F695879577956795C6
:100AD000B795F111F8CFFAF4BB0F11F460FF1BC00A
:100AE0006F5F7F4F8F4F9F4F16C0882311F096E99D
:100AF00011C0772321F09EE8872F762F05C066234B
:100B000071F096E8862F70E060E02AF09A95660F03
:100B1000771F881FDAF7880F9695879597F90895BC
:100B200097F99F6780E870E060E008959FEF80ECA0
:100B3000089500240A941616170618060906089543
:100B400000240A9412161306140605060895092EA9
:100B50000394000C11F4882352F0BB0F40F4BF2B18
:100B600011F460FF04C06F5F7F4F8F4F9F4F089558
:100B700057FD9058440F551F59F05F3F71F047954E
:100B8000880F97FB991F61F09F3F79F08795089533
:100B9000121613061406551FF2CF4695F1DF08C052
:100BA000161617061806991FF1CF8695710561056F
:100BB00008940895E894BB2766277727CB0197F917
:100BC0000895A1E21A2EAA1BBB1BFD010DC0AA1F8E
:100BD000BB1FEE1FFF1FA217B307E407F50720F0A6
:100BE000A21BB30BE40BF50B661F771F881F991F21
:100BF0001A9469F760957095809590959B01AC016A
:100C0000BD01CF010895EE0FFF1F0590F491E02D77
:060C10000994F894FFCFE7
:100C160000000000AE028C005C015B014469737445
:0E0C2600616E6365203A00636D000D0A0000E8
:00000001FF
